{
  "contractName": "AadhaarVerification",
  "abi": [
    {
      "inputs": [
        {
          "internalType": "address",
          "name": "_anonVerifier",
          "type": "address"
        }
      ],
      "stateMutability": "nonpayable",
      "type": "constructor"
    },
    {
      "anonymous": false,
      "inputs": [
        {
          "indexed": true,
          "internalType": "address",
          "name": "userAddress",
          "type": "address"
        },
        {
          "indexed": false,
          "internalType": "uint256",
          "name": "userId",
          "type": "uint256"
        },
        {
          "indexed": false,
          "internalType": "string",
          "name": "name",
          "type": "string"
        },
        {
          "indexed": false,
          "internalType": "uint256",
          "name": "aadhaarNumber",
          "type": "uint256"
        }
      ],
      "name": "UserRegistered",
      "type": "event"
    },
    {
      "anonymous": false,
      "inputs": [
        {
          "indexed": true,
          "internalType": "address",
          "name": "userAddress",
          "type": "address"
        }
      ],
      "name": "UserVerified",
      "type": "event"
    },
    {
      "inputs": [],
      "name": "anonVerifier",
      "outputs": [
        {
          "internalType": "address",
          "name": "",
          "type": "address"
        }
      ],
      "stateMutability": "view",
      "type": "function",
      "constant": true
    },
    {
      "inputs": [],
      "name": "nextUserId",
      "outputs": [
        {
          "internalType": "uint256",
          "name": "",
          "type": "uint256"
        }
      ],
      "stateMutability": "view",
      "type": "function",
      "constant": true
    },
    {
      "inputs": [
        {
          "internalType": "address",
          "name": "",
          "type": "address"
        }
      ],
      "name": "users",
      "outputs": [
        {
          "internalType": "uint256",
          "name": "id",
          "type": "uint256"
        },
        {
          "internalType": "string",
          "name": "name",
          "type": "string"
        },
        {
          "internalType": "uint256",
          "name": "aadhaarNumber",
          "type": "uint256"
        },
        {
          "internalType": "bool",
          "name": "verified",
          "type": "bool"
        }
      ],
      "stateMutability": "view",
      "type": "function",
      "constant": true
    },
    {
      "inputs": [
        {
          "internalType": "address",
          "name": "",
          "type": "address"
        }
      ],
      "name": "zkProofs",
      "outputs": [
        {
          "internalType": "bytes32",
          "name": "",
          "type": "bytes32"
        }
      ],
      "stateMutability": "view",
      "type": "function",
      "constant": true
    },
    {
      "inputs": [
        {
          "internalType": "string",
          "name": "_name",
          "type": "string"
        },
        {
          "internalType": "uint256",
          "name": "_aadhaarNumber",
          "type": "uint256"
        }
      ],
      "name": "registerUser",
      "outputs": [],
      "stateMutability": "nonpayable",
      "type": "function"
    },
    {
      "inputs": [
        {
          "internalType": "bytes32",
          "name": "_zkProof",
          "type": "bytes32"
        }
      ],
      "name": "submitProof",
      "outputs": [],
      "stateMutability": "nonpayable",
      "type": "function"
    },
    {
      "inputs": [
        {
          "internalType": "address",
          "name": "_userAddress",
          "type": "address"
        },
        {
          "internalType": "bytes32",
          "name": "_zkProof",
          "type": "bytes32"
        }
      ],
      "name": "verifyUser",
      "outputs": [],
      "stateMutability": "nonpayable",
      "type": "function"
    },
    {
      "inputs": [
        {
          "internalType": "address",
          "name": "_userAddress",
          "type": "address"
        }
      ],
      "name": "getUserDetails",
      "outputs": [
        {
          "internalType": "uint256",
          "name": "",
          "type": "uint256"
        },
        {
          "internalType": "string",
          "name": "",
          "type": "string"
        },
        {
          "internalType": "uint256",
          "name": "",
          "type": "uint256"
        },
        {
          "internalType": "bool",
          "name": "",
          "type": "bool"
        }
      ],
      "stateMutability": "view",
      "type": "function",
      "constant": true
    }
  ],
  "bytecode": "0x608060405234801561001057600080fd5b50604051610fe4380380610fe48339818101604052810190610032919061008e565b80600360006101000a81548173ffffffffffffffffffffffffffffffffffffffff021916908373ffffffffffffffffffffffffffffffffffffffff16021790555050610100565b600081519050610088816100e9565b92915050565b6000602082840312156100a057600080fd5b60006100ae84828501610079565b91505092915050565b60006100c2826100c9565b9050919050565b600073ffffffffffffffffffffffffffffffffffffffff82169050919050565b6100f2816100b7565b81146100fd57600080fd5b50565b610ed58061010f6000396000f3fe608060405234801561001057600080fd5b50600436106100885760003560e01c8063bf0844081161005b578063bf0844081461012a578063cc3d967b14610146578063d395100214610179578063e1cfe2811461019557610088565b806358e957621461008d578063a0f39f00146100bd578063a1e6a255146100d9578063a87430ba146100f7575b600080fd5b6100a760048036038101906100a291906108d8565b6101b3565b6040516100b49190610b19565b60405180910390f35b6100d760048036038101906100d29190610901565b6101cb565b005b6100e161035c565b6040516100ee9190610b74565b60405180910390f35b610111600480360381019061010c91906108d8565b610362565b6040516101219493929190610bcd565b60405180910390f35b610144600480360381019061013f9190610966565b610427565b005b610160600480360381019061015b91906108d8565b61046e565b6040516101709493929190610bcd565b60405180910390f35b610193600480360381019061018e919061098f565b6105a7565b005b61019d610753565b6040516101aa9190610afe565b60405180910390f35b60016020528060005260406000206000915090505481565b6000600360009054906101000a900473ffffffffffffffffffffffffffffffffffffffff1673ffffffffffffffffffffffffffffffffffffffff1663b142b4ec836040518263ffffffff1660e01b81526004016102289190610b19565b60206040518083038186803b15801561024057600080fd5b505afa158015610254573d6000803e3d6000fd5b505050506040513d601f19601f82011682018060405250810190610278919061093d565b9050806102ba576040517f08c379a00000000000000000000000000000000000000000000000000000000081526004016102b190610b34565b60405180910390fd5b60016000808573ffffffffffffffffffffffffffffffffffffffff1673ffffffffffffffffffffffffffffffffffffffff16815260200190815260200160002060030160006101000a81548160ff0219169083151502179055508273ffffffffffffffffffffffffffffffffffffffff167fa6625d2d26e786e2f473111bea4b2fcdbbf1863d883a2359989ce3a103d2972a60405160405180910390a2505050565b60025481565b600060205280600052604060002060009150905080600001549080600101805461038b90610d2a565b80601f01602080910402602001604051908101604052809291908181526020018280546103b790610d2a565b80156104045780601f106103d957610100808354040283529160200191610404565b820191906000526020600020905b8154815290600101906020018083116103e757829003601f168201915b5050505050908060020154908060030160009054906101000a900460ff16905084565b80600160003373ffffffffffffffffffffffffffffffffffffffff1673ffffffffffffffffffffffffffffffffffffffff1681526020019081526020016000208190555050565b6000606060008060008060008773ffffffffffffffffffffffffffffffffffffffff1673ffffffffffffffffffffffffffffffffffffffff168152602001908152602001600020604051806080016040529081600082015481526020016001820180546104da90610d2a565b80601f016020809104026020016040519081016040528092919081815260200182805461050690610d2a565b80156105535780601f1061052857610100808354040283529160200191610553565b820191906000526020600020905b81548152906001019060200180831161053657829003601f168201915b50505050508152602001600282015481526020016003820160009054906101000a900460ff161515151581525050905080600001518160200151826040015183606001519450945094509450509193509193565b60008060003373ffffffffffffffffffffffffffffffffffffffff1673ffffffffffffffffffffffffffffffffffffffff168152602001908152602001600020600001541461062b576040517f08c379a000000000000000000000000000000000000000000000000000000000815260040161062290610b54565b60405180910390fd5b6002600081548092919061063e90610d5c565b919050555060405180608001604052806002548152602001838152602001828152602001600015158152506000803373ffffffffffffffffffffffffffffffffffffffff1673ffffffffffffffffffffffffffffffffffffffff1681526020019081526020016000206000820151816000015560208201518160010190805190602001906106cd929190610779565b506040820151816002015560608201518160030160006101000a81548160ff0219169083151502179055509050503373ffffffffffffffffffffffffffffffffffffffff167fd8bb59d36928f68a577ad9a98a518bd82e9d5fbbcbfe78dcc97342b5bf38c184600254848460405161074793929190610b8f565b60405180910390a25050565b600360009054906101000a900473ffffffffffffffffffffffffffffffffffffffff1681565b82805461078590610d2a565b90600052602060002090601f0160209004810192826107a757600085556107ee565b82601f106107c057805160ff19168380011785556107ee565b828001600101855582156107ee579182015b828111156107ed5782518255916020019190600101906107d2565b5b5090506107fb91906107ff565b5090565b5b80821115610818576000816000905550600101610800565b5090565b600061082f61082a84610c4a565b610c19565b90508281526020810184848401111561084757600080fd5b610852848285610ce8565b509392505050565b60008135905061086981610e43565b92915050565b60008151905061087e81610e5a565b92915050565b60008135905061089381610e71565b92915050565b600082601f8301126108aa57600080fd5b81356108ba84826020860161081c565b91505092915050565b6000813590506108d281610e88565b92915050565b6000602082840312156108ea57600080fd5b60006108f88482850161085a565b91505092915050565b6000806040838503121561091457600080fd5b60006109228582860161085a565b925050602061093385828601610884565b9150509250929050565b60006020828403121561094f57600080fd5b600061095d8482850161086f565b91505092915050565b60006020828403121561097857600080fd5b600061098684828501610884565b91505092915050565b600080604083850312156109a257600080fd5b600083013567ffffffffffffffff8111156109bc57600080fd5b6109c885828601610899565b92505060206109d9858286016108c3565b9150509250929050565b6109ec81610c96565b82525050565b6109fb81610ca8565b82525050565b610a0a81610cb4565b82525050565b6000610a1b82610c7a565b610a258185610c85565b9350610a35818560208601610cf7565b610a3e81610e32565b840191505092915050565b6000610a56602883610c85565b91507f5a65726f2d6b6e6f776c656467652070726f6f6620766572696669636174696f60008301527f6e206661696c65640000000000000000000000000000000000000000000000006020830152604082019050919050565b6000610abc601783610c85565b91507f5573657220616c726561647920726567697374657265640000000000000000006000830152602082019050919050565b610af881610cde565b82525050565b6000602082019050610b1360008301846109e3565b92915050565b6000602082019050610b2e6000830184610a01565b92915050565b60006020820190508181036000830152610b4d81610a49565b9050919050565b60006020820190508181036000830152610b6d81610aaf565b9050919050565b6000602082019050610b896000830184610aef565b92915050565b6000606082019050610ba46000830186610aef565b8181036020830152610bb68185610a10565b9050610bc56040830184610aef565b949350505050565b6000608082019050610be26000830187610aef565b8181036020830152610bf48186610a10565b9050610c036040830185610aef565b610c1060608301846109f2565b95945050505050565b6000604051905081810181811067ffffffffffffffff82111715610c4057610c3f610e03565b5b8060405250919050565b600067ffffffffffffffff821115610c6557610c64610e03565b5b601f19601f8301169050602081019050919050565b600081519050919050565b600082825260208201905092915050565b6000610ca182610cbe565b9050919050565b60008115159050919050565b6000819050919050565b600073ffffffffffffffffffffffffffffffffffffffff82169050919050565b6000819050919050565b82818337600083830152505050565b60005b83811015610d15578082015181840152602081019050610cfa565b83811115610d24576000848401525b50505050565b60006002820490506001821680610d4257607f821691505b60208210811415610d5657610d55610dd4565b5b50919050565b6000610d6782610cde565b91507fffffffffffffffffffffffffffffffffffffffffffffffffffffffffffffffff821415610d9a57610d99610da5565b5b600182019050919050565b7f4e487b7100000000000000000000000000000000000000000000000000000000600052601160045260246000fd5b7f4e487b7100000000000000000000000000000000000000000000000000000000600052602260045260246000fd5b7f4e487b7100000000000000000000000000000000000000000000000000000000600052604160045260246000fd5b6000601f19601f8301169050919050565b610e4c81610c96565b8114610e5757600080fd5b50565b610e6381610ca8565b8114610e6e57600080fd5b50565b610e7a81610cb4565b8114610e8557600080fd5b50565b610e9181610cde565b8114610e9c57600080fd5b5056fea26469706673582212205fbb08dcb828e5d4b3904ae8762dbf9fbed9a40d3418d92df0f6950fa18b37c064736f6c63430008000033",
  "immutableReferences": {},
  "source": "// SPDX-License-Identifier: MIT\r\npragma solidity ^0.8.0;\r\n\r\ncontract AadhaarVerification {\r\n    // Struct to store user details\r\n    struct User {\r\n        uint256 id;\r\n        string name;\r\n        uint256 aadhaarNumber;\r\n        bool verified;\r\n    }\r\n\r\n    // Mapping to store users\r\n    mapping(address => User) public users;\r\n\r\n    // Mapping to store zero-knowledge proof hash\r\n    mapping(address => bytes32) public zkProofs;\r\n\r\n    // Counter for user IDs\r\n    uint256 public nextUserId;\r\n\r\n    // Address of the Anon Aadhaar verifier contract\r\n    address public anonVerifier;\r\n\r\n    // Event to log user registration\r\n    event UserRegistered(\r\n        address indexed userAddress,\r\n        uint256 userId,\r\n        string name,\r\n        uint256 aadhaarNumber\r\n    );\r\n\r\n    // Event to log user verification\r\n    event UserVerified(address indexed userAddress);\r\n\r\n    // Modifier to restrict access to specific functions\r\n    modifier onlyAdmin() {\r\n        // Implement access control logic here\r\n        _;\r\n    }\r\n\r\n    // Constructor to set the Anon Aadhaar verifier address\r\n    constructor(address _anonVerifier) {\r\n        anonVerifier = _anonVerifier;\r\n    }\r\n\r\n    // Function to register a new user\r\n    function registerUser(string memory _name, uint256 _aadhaarNumber) public {\r\n        // Check if user is already registered\r\n        require(users[msg.sender].id == 0, \"User already registered\");\r\n\r\n        // Increment user ID counter\r\n        nextUserId++;\r\n\r\n        // Store user details\r\n        users[msg.sender] = User(nextUserId, _name, _aadhaarNumber, false);\r\n\r\n        // Emit event for user registration\r\n        emit UserRegistered(msg.sender, nextUserId, _name, _aadhaarNumber);\r\n    }\r\n\r\n    // Function to submit zero-knowledge proof\r\n    function submitProof(bytes32 _zkProof) public {\r\n        // Store the zero-knowledge proof hash\r\n        zkProofs[msg.sender] = _zkProof;\r\n    }\r\n\r\n    // Function to verify user using Aadhaar verification service\r\n    function verifyUser(\r\n        address _userAddress,\r\n        bytes32 _zkProof\r\n    ) public onlyAdmin {\r\n        // Call the Anon Aadhaar verifier contract to verify the zero-knowledge proof\r\n        // This is a placeholder for the actual verification call\r\n        bool isVerified = IAnonVerifier(anonVerifier).verifyProof(_zkProof);\r\n\r\n        // Update the user's verification status based on the verification result\r\n        require(isVerified, \"Zero-knowledge proof verification failed\");\r\n        users[_userAddress].verified = true;\r\n\r\n        // Emit event for user verification\r\n        emit UserVerified(_userAddress);\r\n    }\r\n\r\n    // Function to get user details by address\r\n    function getUserDetails(\r\n        address _userAddress\r\n    ) public view returns (uint256, string memory, uint256, bool) {\r\n        User memory user = users[_userAddress];\r\n        return (user.id, user.name, user.aadhaarNumber, user.verified);\r\n    }\r\n}\r\n\r\n// Interface for the Anon Aadhaar verifier contract\r\ninterface IAnonVerifier {\r\n    function verifyProof(bytes32 _zkProof) external view returns (bool);\r\n}\r\n",
  "sourcePath": "D:\\Documents\\Learning\\Hacker House Goa Dapp\\Dapp\\Backend\\my-dapp\\contracts\\AadhaarVerification.sol",
  "compiler": {
    "name": "solc",
    "version": "0.8.0+commit.c7dfd78e.Emscripten.clang"
  },
  "schemaVersion": "3.4.16",
  "updatedAt": "2024-07-12T07:26:54.829Z",
  "networkType": "ethereum",
  "devdoc": {
    "kind": "dev",
    "methods": {},
    "version": 1
  },
  "userdoc": {
    "kind": "user",
    "methods": {},
    "version": 1
  }
}