{
  "contractName": "AadhaarVerification",
  "abi": [
    {
      "inputs": [
        {
          "internalType": "address",
          "name": "_anonVerifier",
          "type": "address"
        }
      ],
      "stateMutability": "nonpayable",
      "type": "constructor"
    },
    {
      "anonymous": false,
      "inputs": [
        {
          "indexed": true,
          "internalType": "address",
          "name": "userAddress",
          "type": "address"
        },
        {
          "indexed": false,
          "internalType": "uint256",
          "name": "userId",
          "type": "uint256"
        },
        {
          "indexed": false,
          "internalType": "string",
          "name": "name",
          "type": "string"
        },
        {
          "indexed": false,
          "internalType": "uint256",
          "name": "aadhaarNumber",
          "type": "uint256"
        }
      ],
      "name": "UserRegistered",
      "type": "event"
    },
    {
      "anonymous": false,
      "inputs": [
        {
          "indexed": true,
          "internalType": "address",
          "name": "userAddress",
          "type": "address"
        }
      ],
      "name": "UserVerified",
      "type": "event"
    },
    {
      "inputs": [],
      "name": "anonVerifier",
      "outputs": [
        {
          "internalType": "address",
          "name": "",
          "type": "address"
        }
      ],
      "stateMutability": "view",
      "type": "function",
      "constant": true
    },
    {
      "inputs": [],
      "name": "nextUserId",
      "outputs": [
        {
          "internalType": "uint256",
          "name": "",
          "type": "uint256"
        }
      ],
      "stateMutability": "view",
      "type": "function",
      "constant": true
    },
    {
      "inputs": [
        {
          "internalType": "address",
          "name": "",
          "type": "address"
        }
      ],
      "name": "users",
      "outputs": [
        {
          "internalType": "uint256",
          "name": "id",
          "type": "uint256"
        },
        {
          "internalType": "string",
          "name": "name",
          "type": "string"
        },
        {
          "internalType": "uint256",
          "name": "aadhaarNumber",
          "type": "uint256"
        },
        {
          "internalType": "bool",
          "name": "verified",
          "type": "bool"
        }
      ],
      "stateMutability": "view",
      "type": "function",
      "constant": true
    },
    {
      "inputs": [
        {
          "internalType": "address",
          "name": "",
          "type": "address"
        }
      ],
      "name": "zkProofs",
      "outputs": [
        {
          "internalType": "bytes32",
          "name": "",
          "type": "bytes32"
        }
      ],
      "stateMutability": "view",
      "type": "function",
      "constant": true
    },
    {
      "inputs": [
        {
          "internalType": "string",
          "name": "_name",
          "type": "string"
        },
        {
          "internalType": "uint256",
          "name": "_aadhaarNumber",
          "type": "uint256"
        }
      ],
      "name": "registerUser",
      "outputs": [],
      "stateMutability": "nonpayable",
      "type": "function"
    },
    {
      "inputs": [
        {
          "internalType": "bytes32",
          "name": "_zkProof",
          "type": "bytes32"
        }
      ],
      "name": "submitProof",
      "outputs": [],
      "stateMutability": "nonpayable",
      "type": "function"
    },
    {
      "inputs": [
        {
          "internalType": "address",
          "name": "_userAddress",
          "type": "address"
        },
        {
          "internalType": "bytes32",
          "name": "_zkProof",
          "type": "bytes32"
        }
      ],
      "name": "verifyUser",
      "outputs": [],
      "stateMutability": "nonpayable",
      "type": "function"
    },
    {
      "inputs": [
        {
          "internalType": "address",
          "name": "_userAddress",
          "type": "address"
        }
      ],
      "name": "getUserDetails",
      "outputs": [
        {
          "internalType": "uint256",
          "name": "",
          "type": "uint256"
        },
        {
          "internalType": "string",
          "name": "",
          "type": "string"
        },
        {
          "internalType": "uint256",
          "name": "",
          "type": "uint256"
        },
        {
          "internalType": "bool",
          "name": "",
          "type": "bool"
        }
      ],
      "stateMutability": "view",
      "type": "function",
      "constant": true
    }
  ],
  "bytecode": "0x608060405234801561001057600080fd5b506040516110c53803806110c58339818101604052810190610032919061008e565b80600360006101000a81548173ffffffffffffffffffffffffffffffffffffffff021916908373ffffffffffffffffffffffffffffffffffffffff16021790555050610100565b600081519050610088816100e9565b92915050565b6000602082840312156100a057600080fd5b60006100ae84828501610079565b91505092915050565b60006100c2826100c9565b9050919050565b600073ffffffffffffffffffffffffffffffffffffffff82169050919050565b6100f2816100b7565b81146100fd57600080fd5b50565b610fb68061010f6000396000f3fe608060405234801561001057600080fd5b50600436106100885760003560e01c8063bf0844081161005b578063bf0844081461012a578063cc3d967b14610146578063d395100214610179578063e1cfe2811461019557610088565b806358e957621461008d578063a0f39f00146100bd578063a1e6a255146100d9578063a87430ba146100f7575b600080fd5b6100a760048036038101906100a29190610959565b6101b3565b6040516100b49190610bda565b60405180910390f35b6100d760048036038101906100d29190610982565b6101cb565b005b6100e16103dd565b6040516100ee9190610c55565b60405180910390f35b610111600480360381019061010c9190610959565b6103e3565b6040516101219493929190610cae565b60405180910390f35b610144600480360381019061013f91906109e7565b6104a8565b005b610160600480360381019061015b9190610959565b6104ef565b6040516101709493929190610cae565b60405180910390f35b610193600480360381019061018e9190610a10565b610628565b005b61019d6107d4565b6040516101aa9190610bbf565b60405180910390f35b60016020528060005260406000206000915090505481565b80600160008473ffffffffffffffffffffffffffffffffffffffff1673ffffffffffffffffffffffffffffffffffffffff168152602001908152602001600020541461024c576040517f08c379a000000000000000000000000000000000000000000000000000000000815260040161024390610c15565b60405180910390fd5b6000600360009054906101000a900473ffffffffffffffffffffffffffffffffffffffff1673ffffffffffffffffffffffffffffffffffffffff1663b142b4ec836040518263ffffffff1660e01b81526004016102a99190610bda565b60206040518083038186803b1580156102c157600080fd5b505afa1580156102d5573d6000803e3d6000fd5b505050506040513d601f19601f820116820180604052508101906102f991906109be565b90508061033b576040517f08c379a000000000000000000000000000000000000000000000000000000000815260040161033290610bf5565b60405180910390fd5b60016000808573ffffffffffffffffffffffffffffffffffffffff1673ffffffffffffffffffffffffffffffffffffffff16815260200190815260200160002060030160006101000a81548160ff0219169083151502179055508273ffffffffffffffffffffffffffffffffffffffff167fa6625d2d26e786e2f473111bea4b2fcdbbf1863d883a2359989ce3a103d2972a60405160405180910390a2505050565b60025481565b600060205280600052604060002060009150905080600001549080600101805461040c90610e0b565b80601f016020809104026020016040519081016040528092919081815260200182805461043890610e0b565b80156104855780601f1061045a57610100808354040283529160200191610485565b820191906000526020600020905b81548152906001019060200180831161046857829003601f168201915b5050505050908060020154908060030160009054906101000a900460ff16905084565b80600160003373ffffffffffffffffffffffffffffffffffffffff1673ffffffffffffffffffffffffffffffffffffffff1681526020019081526020016000208190555050565b6000606060008060008060008773ffffffffffffffffffffffffffffffffffffffff1673ffffffffffffffffffffffffffffffffffffffff1681526020019081526020016000206040518060800160405290816000820154815260200160018201805461055b90610e0b565b80601f016020809104026020016040519081016040528092919081815260200182805461058790610e0b565b80156105d45780601f106105a9576101008083540402835291602001916105d4565b820191906000526020600020905b8154815290600101906020018083116105b757829003601f168201915b50505050508152602001600282015481526020016003820160009054906101000a900460ff161515151581525050905080600001518160200151826040015183606001519450945094509450509193509193565b60008060003373ffffffffffffffffffffffffffffffffffffffff1673ffffffffffffffffffffffffffffffffffffffff16815260200190815260200160002060000154146106ac576040517f08c379a00000000000000000000000000000000000000000000000000000000081526004016106a390610c35565b60405180910390fd5b600260008154809291906106bf90610e3d565b919050555060405180608001604052806002548152602001838152602001828152602001600015158152506000803373ffffffffffffffffffffffffffffffffffffffff1673ffffffffffffffffffffffffffffffffffffffff16815260200190815260200160002060008201518160000155602082015181600101908051906020019061074e9291906107fa565b506040820151816002015560608201518160030160006101000a81548160ff0219169083151502179055509050503373ffffffffffffffffffffffffffffffffffffffff167fd8bb59d36928f68a577ad9a98a518bd82e9d5fbbcbfe78dcc97342b5bf38c18460025484846040516107c893929190610c70565b60405180910390a25050565b600360009054906101000a900473ffffffffffffffffffffffffffffffffffffffff1681565b82805461080690610e0b565b90600052602060002090601f016020900481019282610828576000855561086f565b82601f1061084157805160ff191683800117855561086f565b8280016001018555821561086f579182015b8281111561086e578251825591602001919060010190610853565b5b50905061087c9190610880565b5090565b5b80821115610899576000816000905550600101610881565b5090565b60006108b06108ab84610d2b565b610cfa565b9050828152602081018484840111156108c857600080fd5b6108d3848285610dc9565b509392505050565b6000813590506108ea81610f24565b92915050565b6000815190506108ff81610f3b565b92915050565b60008135905061091481610f52565b92915050565b600082601f83011261092b57600080fd5b813561093b84826020860161089d565b91505092915050565b60008135905061095381610f69565b92915050565b60006020828403121561096b57600080fd5b6000610979848285016108db565b91505092915050565b6000806040838503121561099557600080fd5b60006109a3858286016108db565b92505060206109b485828601610905565b9150509250929050565b6000602082840312156109d057600080fd5b60006109de848285016108f0565b91505092915050565b6000602082840312156109f957600080fd5b6000610a0784828501610905565b91505092915050565b60008060408385031215610a2357600080fd5b600083013567ffffffffffffffff811115610a3d57600080fd5b610a498582860161091a565b9250506020610a5a85828601610944565b9150509250929050565b610a6d81610d77565b82525050565b610a7c81610d89565b82525050565b610a8b81610d95565b82525050565b6000610a9c82610d5b565b610aa68185610d66565b9350610ab6818560208601610dd8565b610abf81610f13565b840191505092915050565b6000610ad7602883610d66565b91507f5a65726f2d6b6e6f776c656467652070726f6f6620766572696669636174696f60008301527f6e206661696c65640000000000000000000000000000000000000000000000006020830152604082019050919050565b6000610b3d601c83610d66565b91507f496e76616c6964207a65726f2d6b6e6f776c656467652070726f6f66000000006000830152602082019050919050565b6000610b7d601783610d66565b91507f5573657220616c726561647920726567697374657265640000000000000000006000830152602082019050919050565b610bb981610dbf565b82525050565b6000602082019050610bd46000830184610a64565b92915050565b6000602082019050610bef6000830184610a82565b92915050565b60006020820190508181036000830152610c0e81610aca565b9050919050565b60006020820190508181036000830152610c2e81610b30565b9050919050565b60006020820190508181036000830152610c4e81610b70565b9050919050565b6000602082019050610c6a6000830184610bb0565b92915050565b6000606082019050610c856000830186610bb0565b8181036020830152610c978185610a91565b9050610ca66040830184610bb0565b949350505050565b6000608082019050610cc36000830187610bb0565b8181036020830152610cd58186610a91565b9050610ce46040830185610bb0565b610cf16060830184610a73565b95945050505050565b6000604051905081810181811067ffffffffffffffff82111715610d2157610d20610ee4565b5b8060405250919050565b600067ffffffffffffffff821115610d4657610d45610ee4565b5b601f19601f8301169050602081019050919050565b600081519050919050565b600082825260208201905092915050565b6000610d8282610d9f565b9050919050565b60008115159050919050565b6000819050919050565b600073ffffffffffffffffffffffffffffffffffffffff82169050919050565b6000819050919050565b82818337600083830152505050565b60005b83811015610df6578082015181840152602081019050610ddb565b83811115610e05576000848401525b50505050565b60006002820490506001821680610e2357607f821691505b60208210811415610e3757610e36610eb5565b5b50919050565b6000610e4882610dbf565b91507fffffffffffffffffffffffffffffffffffffffffffffffffffffffffffffffff821415610e7b57610e7a610e86565b5b600182019050919050565b7f4e487b7100000000000000000000000000000000000000000000000000000000600052601160045260246000fd5b7f4e487b7100000000000000000000000000000000000000000000000000000000600052602260045260246000fd5b7f4e487b7100000000000000000000000000000000000000000000000000000000600052604160045260246000fd5b6000601f19601f8301169050919050565b610f2d81610d77565b8114610f3857600080fd5b50565b610f4481610d89565b8114610f4f57600080fd5b50565b610f5b81610d95565b8114610f6657600080fd5b50565b610f7281610dbf565b8114610f7d57600080fd5b5056fea26469706673582212207bf34b630357a157dd08810fd40fda7d39a915f418686b7bade2a33bf591106e64736f6c63430008000033",
  "immutableReferences": {},
  "source": "// SPDX-License-Identifier: MIT\r\npragma solidity ^0.8.0;\r\n\r\ncontract AadhaarVerification {\r\n    // Struct to store user details\r\n    struct User {\r\n        uint256 id;\r\n        string name;\r\n        uint256 aadhaarNumber;\r\n        bool verified;\r\n    }\r\n\r\n    // Mapping to store users\r\n    mapping(address => User) public users;\r\n\r\n    // Mapping to store zero-knowledge proof hash\r\n    mapping(address => bytes32) public zkProofs;\r\n\r\n    // Counter for user IDs\r\n    uint256 public nextUserId;\r\n\r\n    // Address of the Anon Aadhaar verifier contract\r\n    address public anonVerifier;\r\n\r\n    // Event to log user registration\r\n    event UserRegistered(address indexed userAddress, uint256 userId, string name, uint256 aadhaarNumber);\r\n\r\n    // Event to log user verification\r\n    event UserVerified(address indexed userAddress);\r\n\r\n    // Constructor to set the Anon Aadhaar verifier address\r\n    constructor(address _anonVerifier) {\r\n        anonVerifier = _anonVerifier;\r\n    }\r\n\r\n    // Function to register a new user\r\n    function registerUser(string memory _name, uint256 _aadhaarNumber) public {\r\n        // Check if user is already registered\r\n        require(users[msg.sender].id == 0, \"User already registered\");\r\n\r\n        // Increment user ID counter\r\n        nextUserId++;\r\n\r\n        // Store user details\r\n        users[msg.sender] = User(nextUserId, _name, _aadhaarNumber, false);\r\n\r\n        // Emit event for user registration\r\n        emit UserRegistered(msg.sender, nextUserId, _name, _aadhaarNumber);\r\n    }\r\n\r\n    // Function to submit zero-knowledge proof\r\n    function submitProof(bytes32 _zkProof) public {\r\n        // Store the zero-knowledge proof hash\r\n        zkProofs[msg.sender] = _zkProof;\r\n    }\r\n\r\n    // Function to verify user using Aadhaar verification service\r\n    function verifyUser(address _userAddress, bytes32 _zkProof) public {\r\n        // Check if the zero-knowledge proof matches the stored proof\r\n        require(zkProofs[_userAddress] == _zkProof, \"Invalid zero-knowledge proof\");\r\n\r\n        // Call the Anon Aadhaar verifier contract to verify the zero-knowledge proof\r\n        bool isVerified = IAnonVerifier(anonVerifier).verifyProof(_zkProof);\r\n\r\n        // Update the user's verification status based on the verification result\r\n        require(isVerified, \"Zero-knowledge proof verification failed\");\r\n        users[_userAddress].verified = true;\r\n\r\n        // Emit event for user verification\r\n        emit UserVerified(_userAddress);\r\n    }\r\n\r\n    // Function to get user details by address\r\n    function getUserDetails(address _userAddress) public view returns (uint256, string memory, uint256, bool) {\r\n        User memory user = users[_userAddress];\r\n        return (user.id, user.name, user.aadhaarNumber, user.verified);\r\n    }\r\n}\r\n\r\n// Interface for the Anon Aadhaar verifier contract\r\ninterface IAnonVerifier {\r\n    function verifyProof(bytes32 _zkProof) external view returns (bool);\r\n}\r\n\r\n/*\r\npragma solidity ^0.8.0;\r\n// Contract without user address\r\n\r\ncontract AadhaarVerification {\r\n    struct User {\r\n        uint256 id;\r\n        string name;\r\n        uint256 aadhaarNumber;\r\n        bool verified;\r\n    }\r\n\r\n    mapping(address => User) public users;\r\n    mapping(address => bytes32) public zkProofs;\r\n\r\n    uint256 public nextUserId;\r\n    address public anonVerifier;\r\n\r\n    event UserRegistered(address indexed userAddress, uint256 userId, string name, uint256 aadhaarNumber);\r\n    event UserVerified(address indexed userAddress);\r\n\r\n    modifier onlyAdmin() {\r\n        // Implement access control logic here\r\n        _;\r\n    }\r\n\r\n    constructor(address _anonVerifier) {\r\n        anonVerifier = _anonVerifier;\r\n    }\r\n\r\n    function registerUser(string memory _name, uint256 _aadhaarNumber, address _userAddress) public {\r\n        require(users[_userAddress].id == 0, \"User already registered\");\r\n        nextUserId++;\r\n        users[_userAddress] = User(nextUserId, _name, _aadhaarNumber, false);\r\n        emit UserRegistered(_userAddress, nextUserId, _name, _aadhaarNumber);\r\n    }\r\n\r\n    function submitProof(bytes32 _zkProof) public {\r\n        zkProofs[msg.sender] = _zkProof;\r\n    }\r\n\r\n    function verifyUser(address _userAddress, bytes32 _zkProof) public onlyAdmin {\r\n        bool isVerified = IAnonVerifier(anonVerifier).verifyProof(_zkProof);\r\n        require(isVerified, \"Zero-knowledge proof verification failed\");\r\n        users[_userAddress].verified = true;\r\n        emit UserVerified(_userAddress);\r\n    }\r\n\r\n    function getUserDetails(address _userAddress) public view returns (uint256, string memory, uint256, bool) {\r\n        User memory user = users[_userAddress];\r\n        return (user.id, user.name, user.aadhaarNumber, user.verified);\r\n    }\r\n}\r\n\r\ninterface IAnonVerifier {\r\n    function verifyProof(bytes32 _zkProof) external view returns (bool);\r\n}\r\n*/\r\n\r\n\r\n\r\n",
  "sourcePath": "D:\\Documents\\Learning\\Hacker House Goa Dapp\\DApp\\Backend\\my-dapp\\contracts\\AadharVerification.sol",
  "compiler": {
    "name": "solc",
    "version": "0.8.0+commit.c7dfd78e.Emscripten.clang"
  },
  "schemaVersion": "3.4.16",
  "updatedAt": "2024-07-15T16:44:49.344Z",
  "networkType": "ethereum",
  "devdoc": {
    "kind": "dev",
    "methods": {},
    "version": 1
  },
  "userdoc": {
    "kind": "user",
    "methods": {},
    "version": 1
  }
}